{
  "contractName": "LifeCoin",
  "abi": [
    {
      "anonymous": false,
      "inputs": [
        {
          "indexed": true,
          "internalType": "address",
          "name": "from",
          "type": "address"
        },
        {
          "indexed": true,
          "internalType": "address",
          "name": "to",
          "type": "address"
        },
        {
          "indexed": false,
          "internalType": "uint256",
          "name": "value",
          "type": "uint256"
        }
      ],
      "name": "Transfer",
      "type": "event"
    },
    {
      "constant": true,
      "inputs": [
        {
          "internalType": "address",
          "name": "",
          "type": "address"
        }
      ],
      "name": "balances",
      "outputs": [
        {
          "internalType": "uint256",
          "name": "",
          "type": "uint256"
        }
      ],
      "payable": false,
      "stateMutability": "view",
      "type": "function"
    },
    {
      "constant": true,
      "inputs": [],
      "name": "name",
      "outputs": [
        {
          "internalType": "string",
          "name": "",
          "type": "string"
        }
      ],
      "payable": false,
      "stateMutability": "view",
      "type": "function"
    },
    {
      "constant": true,
      "inputs": [],
      "name": "symbol",
      "outputs": [
        {
          "internalType": "string",
          "name": "",
          "type": "string"
        }
      ],
      "payable": false,
      "stateMutability": "view",
      "type": "function"
    },
    {
      "constant": false,
      "inputs": [
        {
          "internalType": "address",
          "name": "to",
          "type": "address"
        },
        {
          "internalType": "uint256",
          "name": "amount",
          "type": "uint256"
        }
      ],
      "name": "mint",
      "outputs": [],
      "payable": false,
      "stateMutability": "nonpayable",
      "type": "function"
    },
    {
      "constant": false,
      "inputs": [
        {
          "internalType": "address",
          "name": "to",
          "type": "address"
        },
        {
          "internalType": "uint256",
          "name": "amount",
          "type": "uint256"
        }
      ],
      "name": "transfer",
      "outputs": [],
      "payable": false,
      "stateMutability": "nonpayable",
      "type": "function"
    },
    {
      "constant": true,
      "inputs": [
        {
          "internalType": "address",
          "name": "account",
          "type": "address"
        }
      ],
      "name": "balanceOf",
      "outputs": [
        {
          "internalType": "uint256",
          "name": "",
          "type": "uint256"
        }
      ],
      "payable": false,
      "stateMutability": "view",
      "type": "function"
    }
  ],
  "bytecode": "0x60c060405260086080819052672634b332a1b7b4b760c11b60a09081526100299160009190610066565b50604080518082019091526002808252614c4360f01b602090920191825261005391600191610066565b5034801561006057600080fd5b50610101565b828054600181600116156101000203166002900490600052602060002090601f016020900481019282601f106100a757805160ff19168380011785556100d4565b828001600101855582156100d4579182015b828111156100d45782518255916020019190600101906100b9565b506100e09291506100e4565b5090565b6100fe91905b808211156100e057600081556001016100ea565b90565b610409806101106000396000f3fe608060405234801561001057600080fd5b50600436106100625760003560e01c806306fdde031461006757806327e235e3146100e457806340c10f191461011c57806370a082311461014a57806395d89b4114610170578063a9059cbb14610178575b600080fd5b61006f6101a4565b6040805160208082528351818301528351919283929083019185019080838360005b838110156100a9578181015183820152602001610091565b50505050905090810190601f1680156100d65780820380516001836020036101000a031916815260200191505b509250505060405180910390f35b61010a600480360360208110156100fa57600080fd5b50356001600160a01b0316610232565b60408051918252519081900360200190f35b6101486004803603604081101561013257600080fd5b506001600160a01b038135169060200135610244565b005b61010a6004803603602081101561016057600080fd5b50356001600160a01b031661029b565b61006f6102b6565b6101486004803603604081101561018e57600080fd5b506001600160a01b038135169060200135610310565b6000805460408051602060026001851615610100026000190190941693909304601f8101849004840282018401909252818152929183018282801561022a5780601f106101ff5761010080835404028352916020019161022a565b820191906000526020600020905b81548152906001019060200180831161020d57829003601f168201915b505050505081565b60026020526000908152604090205481565b6001600160a01b0382166000818152600260209081526040808320805486019055805185815290517fddf252ad1be2c89b69c2b068fc378daa952ba7f163c4a11628f55a4df523b3ef929181900390910190a35050565b6001600160a01b031660009081526002602052604090205490565b60018054604080516020600284861615610100026000190190941693909304601f8101849004840282018401909252818152929183018282801561022a5780601f106101ff5761010080835404028352916020019161022a565b3360009081526002602052604090205481111561036b576040805162461bcd60e51b8152602060048201526014602482015273496e73756666696369656e742062616c616e636560601b604482015290519081900360640190fd5b336000818152600260209081526040808320805486900390556001600160a01b03861680845292819020805486019055805185815290519293927fddf252ad1be2c89b69c2b068fc378daa952ba7f163c4a11628f55a4df523b3ef929181900390910190a3505056fea265627a7a72315820ed8021f6280730f850418b34d16c625db3bfe4c3469d86980d91ea283062740464736f6c63430005100032",
  "source": "// SPDX-License-Identifier: MIT\n\n\ncontract LifeCoin {\n    string public name = \"LifeCoin\";\n    string public symbol = \"LC\";\n    mapping(address => uint256) public balances;\n\n    event Transfer(address indexed from, address indexed to, uint256 value);\n\n    function mint(address to, uint256 amount) public {\n        balances[to] += amount;\n        emit Transfer(address(0), to, amount);\n    }\n\n    function transfer(address to, uint256 amount) public {\n        require(balances[msg.sender] >= amount, \"Insufficient balance\");\n        balances[msg.sender] -= amount;\n        balances[to] += amount;\n        emit Transfer(msg.sender, to, amount);\n    }\n\n    function balanceOf(address account) public view returns (uint256) {\n        return balances[account];\n    }\n}\n",
  "sourcePath": "/home/prathiba/medihacks/contracts/LifeCoin.sol",
  "compiler": {
    "name": "solc",
    "version": "0.5.16+commit.9c3226ce.Emscripten.clang"
  },
  "schemaVersion": "3.4.16",
  "updatedAt": "2024-07-09T16:53:46.325Z",
  "devdoc": {
    "methods": {}
  },
  "userdoc": {
    "methods": {}
  }
}